{
  "contractName": "Provider",
  "abi": [
    {
      "constant": true,
      "inputs": [],
      "name": "name",
      "outputs": [
        {
          "name": "",
          "type": "string"
        }
      ],
      "payable": false,
      "stateMutability": "view",
      "type": "function"
    },
    {
      "constant": true,
      "inputs": [],
      "name": "providerType",
      "outputs": [
        {
          "name": "",
          "type": "uint8"
        }
      ],
      "payable": false,
      "stateMutability": "view",
      "type": "function"
    },
    {
      "constant": true,
      "inputs": [],
      "name": "description",
      "outputs": [
        {
          "name": "",
          "type": "string"
        }
      ],
      "payable": false,
      "stateMutability": "view",
      "type": "function"
    },
    {
      "constant": true,
      "inputs": [],
      "name": "statistics",
      "outputs": [
        {
          "name": "counter",
          "type": "uint256"
        },
        {
          "name": "amountInEther",
          "type": "uint256"
        },
        {
          "name": "reputation",
          "type": "uint256"
        }
      ],
      "payable": false,
      "stateMutability": "view",
      "type": "function"
    }
  ],
  "bytecode": "0x6060604052341561000f57600080fd5b6103848061001e6000396000f300606060405260043610610062576000357c0100000000000000000000000000000000000000000000000000000000900463ffffffff16806306fdde03146100675780635552ea40146100f55780637284e4161461012c57806395e272bd146101ba575b600080fd5b341561007257600080fd5b61007a6101f1565b6040518080602001828103825283818151815260200191508051906020019080838360005b838110156100ba57808201518184015260208101905061009f565b50505050905090810190601f1680156100e75780820380516001836020036101000a031916815260200191505b509250505060405180910390f35b341561010057600080fd5b61010861028f565b6040518082600281111561011857fe5b60ff16815260200191505060405180910390f35b341561013757600080fd5b61013f6102a2565b6040518080602001828103825283818151815260200191508051906020019080838360005b8381101561017f578082015181840152602081019050610164565b50505050905090810190601f1680156101ac5780820380516001836020036101000a031916815260200191505b509250505060405180910390f35b34156101c557600080fd5b6101cd610340565b60405180848152602001838152602001828152602001935050505060405180910390f35b60008054600181600116156101000203166002900480601f0160208091040260200160405190810160405280929190818152602001828054600181600116156101000203166002900480156102875780601f1061025c57610100808354040283529160200191610287565b820191906000526020600020905b81548152906001019060200180831161026a57829003601f168201915b505050505081565b600160009054906101000a900460ff1681565b60028054600181600116156101000203166002900480601f0160208091040260200160405190810160405280929190818152602001828054600181600116156101000203166002900480156103385780601f1061030d57610100808354040283529160200191610338565b820191906000526020600020905b81548152906001019060200180831161031b57829003601f168201915b505050505081565b600480600001549080600101549080600201549050835600a165627a7a72305820f175b7d5045ed45899c29c6eaf8e19306428bf40637ec4ae2f990a0fc957e2950029",
  "source": "pragma solidity ^0.4.18;\n\n\ncontract Provider {\n    enum ProvderType {\n        Strategy,\n        Pricing,\n        Exchange\n    }\n      \n    struct ProviderStatistic {\n        uint counter;\n        uint amountInEther;\n        uint reputation;\n    }    \n\n    struct ERC20Token {\n        string symbol;\n        address tokenAddress;\n        uint decimal;\n    }\n\n    string public name;\n    ProvderType public providerType;\n    string public description;\n    mapping(string => bool) internal properties;\n    ProviderStatistic public statistics;\n}",
  "sourcePath": "/Users/snow/olympus/code/protocol-architecture/contracts/libs/Provider.sol",
  "compiler": {
    "name": "solc",
    "version": "0.4.19+commit.c4cbbb05.Emscripten.clang"
  },
  "schemaVersion": "2.0.0",
  "updatedAt": "2018-03-22T08:03:40.592Z"
}