{
  "contractName": "StrategyProvider",
  "abi": [
    {
      "constant": true,
      "inputs": [],
      "name": "name",
      "outputs": [
        {
          "name": "",
          "type": "string"
        }
      ],
      "payable": false,
      "stateMutability": "view",
      "type": "function"
    },
    {
      "constant": true,
      "inputs": [],
      "name": "providerType",
      "outputs": [
        {
          "name": "",
          "type": "uint8"
        }
      ],
      "payable": false,
      "stateMutability": "view",
      "type": "function"
    },
    {
      "constant": true,
      "inputs": [],
      "name": "description",
      "outputs": [
        {
          "name": "",
          "type": "string"
        }
      ],
      "payable": false,
      "stateMutability": "view",
      "type": "function"
    },
    {
      "constant": true,
      "inputs": [
        {
          "name": "",
          "type": "address"
        },
        {
          "name": "",
          "type": "uint256"
        }
      ],
      "name": "comboIndex",
      "outputs": [
        {
          "name": "",
          "type": "uint256"
        }
      ],
      "payable": false,
      "stateMutability": "view",
      "type": "function"
    },
    {
      "constant": true,
      "inputs": [
        {
          "name": "",
          "type": "uint256"
        }
      ],
      "name": "comboOwner",
      "outputs": [
        {
          "name": "",
          "type": "address"
        }
      ],
      "payable": false,
      "stateMutability": "view",
      "type": "function"
    },
    {
      "constant": true,
      "inputs": [],
      "name": "owner",
      "outputs": [
        {
          "name": "",
          "type": "address"
        }
      ],
      "payable": false,
      "stateMutability": "view",
      "type": "function"
    },
    {
      "constant": true,
      "inputs": [],
      "name": "statistics",
      "outputs": [
        {
          "name": "counter",
          "type": "uint256"
        }
      ],
      "payable": false,
      "stateMutability": "view",
      "type": "function"
    },
    {
      "constant": true,
      "inputs": [
        {
          "name": "",
          "type": "uint256"
        }
      ],
      "name": "comboHub",
      "outputs": [
        {
          "name": "id",
          "type": "uint256"
        },
        {
          "name": "name",
          "type": "string"
        },
        {
          "name": "description",
          "type": "string"
        },
        {
          "name": "isPrivate",
          "type": "bool"
        }
      ],
      "payable": false,
      "stateMutability": "view",
      "type": "function"
    },
    {
      "constant": false,
      "inputs": [
        {
          "name": "newOwner",
          "type": "address"
        }
      ],
      "name": "transferOwnership",
      "outputs": [],
      "payable": false,
      "stateMutability": "nonpayable",
      "type": "function"
    },
    {
      "anonymous": false,
      "inputs": [
        {
          "indexed": false,
          "name": "id",
          "type": "uint256"
        },
        {
          "indexed": false,
          "name": "name",
          "type": "string"
        }
      ],
      "name": "ComboCreated",
      "type": "event"
    },
    {
      "anonymous": false,
      "inputs": [
        {
          "indexed": false,
          "name": "id",
          "type": "uint256"
        },
        {
          "indexed": false,
          "name": "name",
          "type": "string"
        }
      ],
      "name": "ComboUpdated",
      "type": "event"
    },
    {
      "anonymous": false,
      "inputs": [
        {
          "indexed": true,
          "name": "previousOwner",
          "type": "address"
        },
        {
          "indexed": true,
          "name": "newOwner",
          "type": "address"
        }
      ],
      "name": "OwnershipTransferred",
      "type": "event"
    },
    {
      "constant": false,
      "inputs": [
        {
          "name": "_name",
          "type": "string"
        },
        {
          "name": "_description",
          "type": "string"
        },
        {
          "name": "_tokenAddresses",
          "type": "address[]"
        },
        {
          "name": "_weights",
          "type": "uint256[]"
        },
        {
          "name": "_isPrivate",
          "type": "bool"
        },
        {
          "name": "priceInMot",
          "type": "uint256"
        }
      ],
      "name": "createStrategy",
      "outputs": [
        {
          "name": "",
          "type": "uint256"
        }
      ],
      "payable": false,
      "stateMutability": "nonpayable",
      "type": "function"
    },
    {
      "constant": false,
      "inputs": [
        {
          "name": "_index",
          "type": "uint256"
        },
        {
          "name": "_name",
          "type": "string"
        },
        {
          "name": "_description",
          "type": "string"
        },
        {
          "name": "_isPrivate",
          "type": "bool"
        },
        {
          "name": "_tokenAddresses",
          "type": "address[]"
        },
        {
          "name": "_weights",
          "type": "uint256[]"
        },
        {
          "name": "_priceInMot",
          "type": "uint256"
        }
      ],
      "name": "updateStrategy",
      "outputs": [
        {
          "name": "success",
          "type": "bool"
        }
      ],
      "payable": false,
      "stateMutability": "nonpayable",
      "type": "function"
    },
    {
      "constant": true,
      "inputs": [
        {
          "name": "_index",
          "type": "uint256"
        }
      ],
      "name": "isPrivate",
      "outputs": [
        {
          "name": "",
          "type": "bool"
        }
      ],
      "payable": false,
      "stateMutability": "view",
      "type": "function"
    },
    {
      "constant": true,
      "inputs": [
        {
          "name": "_index",
          "type": "uint256"
        }
      ],
      "name": "isOwner",
      "outputs": [
        {
          "name": "",
          "type": "bool"
        }
      ],
      "payable": false,
      "stateMutability": "view",
      "type": "function"
    },
    {
      "constant": true,
      "inputs": [],
      "name": "getAllStrategyIndex",
      "outputs": [
        {
          "name": "",
          "type": "uint256[]"
        }
      ],
      "payable": false,
      "stateMutability": "view",
      "type": "function"
    },
    {
      "constant": true,
      "inputs": [
        {
          "name": "_index",
          "type": "uint256"
        }
      ],
      "name": "getStrategy",
      "outputs": [
        {
          "name": "id",
          "type": "uint256"
        },
        {
          "name": "name",
          "type": "string"
        },
        {
          "name": "description",
          "type": "string"
        },
        {
          "name": "indexOwner",
          "type": "address"
        },
        {
          "name": "tokenAddresses",
          "type": "address[]"
        },
        {
          "name": "weights",
          "type": "uint256[]"
        },
        {
          "name": "isPrivateIndex",
          "type": "bool"
        },
        {
          "name": "price",
          "type": "uint256"
        }
      ],
      "payable": false,
      "stateMutability": "view",
      "type": "function"
    },
    {
      "constant": false,
      "inputs": [],
      "name": "getStrategies",
      "outputs": [],
      "payable": false,
      "stateMutability": "nonpayable",
      "type": "function"
    }
  ],
  "bytecode": "0x606060405233600560006101000a81548173ffffffffffffffffffffffffffffffffffffffff021916908373ffffffffffffffffffffffffffffffffffffffff160217905550611d73806100546000396000f3006060604052600436106100e6576000357c0100000000000000000000000000000000000000000000000000000000900463ffffffff16806306fdde03146100eb57806324d45d9e1461017957806339c7639c146101b457806353383290146101ef5780635552ea40146103375780637284e4161461036e578063783c5782146103fc5780638130fd7d14610466578063821628b8146105bb578063834c4c38146106115780638da5cb5b1461067457806395e272bd146106c9578063b49a60bb146106f2578063cfc0cc3414610707578063efaa044e146108eb578063f2fde38b14610a3f575b600080fd5b34156100f657600080fd5b6100fe610a78565b6040518080602001828103825283818151815260200191508051906020019080838360005b8381101561013e578082015181840152602081019050610123565b50505050905090810190601f16801561016b5780820380516001836020036101000a031916815260200191505b509250505060405180910390f35b341561018457600080fd5b61019a6004808035906020019091905050610b16565b604051808215151515815260200191505060405180910390f35b34156101bf57600080fd5b6101d56004808035906020019091905050610b62565b604051808215151515815260200191505060405180910390f35b34156101fa57600080fd5b610321600480803590602001908201803590602001908080601f0160208091040260200160405190810160405280939291908181526020018383808284378201915050505050509190803590602001908201803590602001908080601f0160208091040260200160405190810160405280939291908181526020018383808284378201915050505050509190803590602001908201803590602001908080602002602001604051908101604052809392919081815260200183836020028082843782019150505050505091908035906020019082018035906020019080806020026020016040519081016040528093929190818152602001838360200280828437820191505050505050919080351515906020019091908035906020019091905050610be2565b6040518082815260200191505060405180910390f35b341561034257600080fd5b61034a610ec4565b6040518082600281111561035a57fe5b60ff16815260200191505060405180910390f35b341561037957600080fd5b610381610ed7565b6040518080602001828103825283818151815260200191508051906020019080838360005b838110156103c15780820151818401526020810190506103a6565b50505050905090810190601f1680156103ee5780820380516001836020036101000a031916815260200191505b509250505060405180910390f35b341561040757600080fd5b61040f610f75565b6040518080602001828103825283818151815260200191508051906020019060200280838360005b83811015610452578082015181840152602081019050610437565b505050509050019250505060405180910390f35b341561047157600080fd5b6105a1600480803590602001909190803590602001908201803590602001908080601f0160208091040260200160405190810160405280939291908181526020018383808284378201915050505050509190803590602001908201803590602001908080601f0160208091040260200160405190810160405280939291908181526020018383808284378201915050505050509190803515159060200190919080359060200190820180359060200190808060200260200160405190810160405280939291908181526020018383602002808284378201915050505050509190803590602001908201803590602001908080602002602001604051908101604052809392919081815260200183836020028082843782019150505050505091908035906020019091905050611010565b604051808215151515815260200191505060405180910390f35b34156105c657600080fd5b6105fb600480803573ffffffffffffffffffffffffffffffffffffffff16906020019091908035906020019091905050611256565b6040518082815260200191505060405180910390f35b341561061c57600080fd5b6106326004808035906020019091905050611287565b604051808273ffffffffffffffffffffffffffffffffffffffff1673ffffffffffffffffffffffffffffffffffffffff16815260200191505060405180910390f35b341561067f57600080fd5b6106876112ba565b604051808273ffffffffffffffffffffffffffffffffffffffff1673ffffffffffffffffffffffffffffffffffffffff16815260200191505060405180910390f35b34156106d457600080fd5b6106dc6112e0565b6040518082815260200191505060405180910390f35b34156106fd57600080fd5b6107056112ec565b005b341561071257600080fd5b61072860048080359060200190919050506112ee565b6040518089815260200180602001806020018873ffffffffffffffffffffffffffffffffffffffff1673ffffffffffffffffffffffffffffffffffffffff16815260200180602001806020018715151515815260200186815260200185810385528c818151815260200191508051906020019080838360005b838110156107bc5780820151818401526020810190506107a1565b50505050905090810190601f1680156107e95780820380516001836020036101000a031916815260200191505b5085810384528b818151815260200191508051906020019080838360005b83811015610822578082015181840152602081019050610807565b50505050905090810190601f16801561084f5780820380516001836020036101000a031916815260200191505b50858103835289818151815260200191508051906020019060200280838360005b8381101561088b578082015181840152602081019050610870565b50505050905001858103825288818151815260200191508051906020019060200280838360005b838110156108cd5780820151818401526020810190506108b2565b505050509050019c5050505050505050505050505060405180910390f35b34156108f657600080fd5b61090c6004808035906020019091905050611607565b604051808581526020018060200180602001841515151581526020018381038352868181546001816001161561010002031660029004815260200191508054600181600116156101000203166002900480156109a95780601f1061097e576101008083540402835291602001916109a9565b820191906000526020600020905b81548152906001019060200180831161098c57829003601f168201915b5050838103825285818154600181600116156101000203166002900481526020019150805460018160011615610100020316600290048015610a2c5780601f10610a0157610100808354040283529160200191610a2c565b820191906000526020600020905b815481529060010190602001808311610a0f57829003601f168201915b5050965050505050505060405180910390f35b3415610a4a57600080fd5b610a76600480803573ffffffffffffffffffffffffffffffffffffffff16906020019091905050611651565b005b60008054600181600116156101000203166002900480601f016020809104026020016040519081016040528092919081815260200182805460018160011615610100020316600290048015610b0e5780601f10610ae357610100808354040283529160200191610b0e565b820191906000526020600020905b815481529060010190602001808311610af157829003601f168201915b505050505081565b60008160068054905081101515610b2c57600080fd5b600683815481101515610b3b57fe5b906000526020600020906006020160030160009054906101000a900460ff16915050919050565b60008160068054905081101515610b7857600080fd5b3373ffffffffffffffffffffffffffffffffffffffff166008600085815260200190815260200160002060009054906101000a900473ffffffffffffffffffffffffffffffffffffffff1673ffffffffffffffffffffffffffffffffffffffff1614915050919050565b6000806000610bef611805565b6000339350610bfe89896117a9565b1515610c0957600080fd5b600760003373ffffffffffffffffffffffffffffffffffffffff1673ffffffffffffffffffffffffffffffffffffffff16815260200190815260200160002080549050925060c0604051908101604052808481526020018c81526020018b815260200188151581526020018a81526020018981525091507f5710610526b7d140cee4734d90a7d025d8726a965276c447cbe4f5ee53a5e577826000015183602001516040518083815260200180602001828103825283818151815260200191508051906020019080838360005b83811015610cf1578082015181840152602081019050610cd6565b50505050905090810190601f168015610d1e5780820380516001836020036101000a031916815260200191505b50935050505060405180910390a1600160068054806001018281610d429190611856565b91600052602060002090600602016000859091909150600082015181600001556020820151816001019080519060200190610d7e929190611888565b506040820151816002019080519060200190610d9b929190611888565b5060608201518160030160006101000a81548160ff0219169083151502179055506080820151816004019080519060200190610dd8929190611908565b5060a0820151816005019080519060200190610df5929190611992565b505050039050836008600083815260200190815260200160002060006101000a81548173ffffffffffffffffffffffffffffffffffffffff021916908373ffffffffffffffffffffffffffffffffffffffff160217905550600760008573ffffffffffffffffffffffffffffffffffffffff1673ffffffffffffffffffffffffffffffffffffffff1681526020019081526020016000208054806001018281610e9e91906119df565b916000526020600020900160008390919091505550809450505050509695505050505050565b600160009054906101000a900460ff1681565b60028054600181600116156101000203166002900480601f016020809104026020016040519081016040528092919081815260200182805460018160011615610100020316600290048015610f6d5780601f10610f4257610100808354040283529160200191610f6d565b820191906000526020600020905b815481529060010190602001808311610f5057829003601f168201915b505050505081565b610f7d611a0b565b600760003373ffffffffffffffffffffffffffffffffffffffff1673ffffffffffffffffffffffffffffffffffffffff16815260200190815260200160002080548060200260200160405190810160405280929190818152602001828054801561100657602002820191906000526020600020905b815481526020019060010190808311610ff2575b5050505050905090565b600061101c84846117a9565b151561102757600080fd5b61103088610b62565b151561103b57600080fd5b8660068981548110151561104b57fe5b9060005260206000209060060201600101908051906020019061106f929190611a1f565b508560068981548110151561108057fe5b906000526020600020906006020160020190805190602001906110a4929190611a1f565b50846006898154811015156110b557fe5b906000526020600020906006020160030160006101000a81548160ff021916908315150217905550836006898154811015156110ed57fe5b90600052602060002090600602016004019080519060200190611111929190611a9f565b508260068981548110151561112257fe5b90600052602060002090600602016005019080519060200190611146929190611b29565b507f9db0558ef51437816cca15f0062dafeea49b4cee9521c00938eb9c2a786167ce60068981548110151561117757fe5b90600052602060002090600602016000015460068a81548110151561119857fe5b906000526020600020906006020160010160405180838152602001806020018281038252838181546001816001161561010002031660029004815260200191508054600181600116156101000203166002900480156112385780601f1061120d57610100808354040283529160200191611238565b820191906000526020600020905b81548152906001019060200180831161121b57829003601f168201915b5050935050505060405180910390a160019050979650505050505050565b60076020528160005260406000208181548110151561127157fe5b9060005260206000209001600091509150505481565b60086020528060005260406000206000915054906101000a900473ffffffffffffffffffffffffffffffffffffffff1681565b600560009054906101000a900473ffffffffffffffffffffffffffffffffffffffff1681565b60048060000154905081565b565b60006112f8611b76565b611300611b76565b600061130a611b8a565b611312611a0b565b6000806000808a6006805490508110151561132c57600080fd5b6113358c610b62565b8061134657506113448c610b16565b155b156115f45760068c81548110151561135a57fe5b90600052602060002090600602019250600860008d815260200190815260200160002060009054906101000a900473ffffffffffffffffffffffffffffffffffffffff169150826000015483600101846002018486600401876005018860030160009054906101000a900460ff166000868054600181600116156101000203166002900480601f01602080910402602001604051908101604052809291908181526020018280546001816001161561010002031660029004801561145f5780601f106114345761010080835404028352916020019161145f565b820191906000526020600020905b81548152906001019060200180831161144257829003601f168201915b50505050509650858054600181600116156101000203166002900480601f0160208091040260200160405190810160405280929190818152602001828054600181600116156101000203166002900480156114fb5780601f106114d0576101008083540402835291602001916114fb565b820191906000526020600020905b8154815290600101906020018083116114de57829003601f168201915b505050505095508380548060200260200160405190810160405280929190818152602001828054801561158357602002820191906000526020600020905b8160009054906101000a900473ffffffffffffffffffffffffffffffffffffffff1673ffffffffffffffffffffffffffffffffffffffff1681526020019060010190808311611539575b50505050509350828054806020026020016040519081016040528092919081815260200182805480156115d557602002820191906000526020600020905b8154815260200190600101908083116115c1575b505050505092508090509a509a509a509a509a509a509a509a506115f9565b600080fd5b505050919395975091939597565b60068181548110151561161657fe5b9060005260206000209060060201600091509050806000015490806001019080600201908060030160009054906101000a900460ff16905084565b600560009054906101000a900473ffffffffffffffffffffffffffffffffffffffff1673ffffffffffffffffffffffffffffffffffffffff163373ffffffffffffffffffffffffffffffffffffffff161415156116ad57600080fd5b600073ffffffffffffffffffffffffffffffffffffffff168173ffffffffffffffffffffffffffffffffffffffff16141515156116e957600080fd5b8073ffffffffffffffffffffffffffffffffffffffff16600560009054906101000a900473ffffffffffffffffffffffffffffffffffffffff1673ffffffffffffffffffffffffffffffffffffffff167f8be0079c531659141344cd1fd0a4f28419497f9722a3daafe3b4186f6b6457e060405160405180910390a380600560006101000a81548173ffffffffffffffffffffffffffffffffffffffff021916908373ffffffffffffffffffffffffffffffffffffffff16021790555050565b6000806000835185511415156117be57600080fd5b60009150600090505b83518110156117f75783818151811015156117de57fe5b90602001906020020151820191508060010190506117c7565b606482149250505092915050565b60c06040519081016040528060008152602001611820611b9e565b815260200161182d611b9e565b8152602001600015158152602001611843611bb2565b8152602001611850611bc6565b81525090565b815481835581811511611883576006028160060283600052602060002091820191016118829190611bda565b5b505050565b828054600181600116156101000203166002900490600052602060002090601f016020900481019282601f106118c957805160ff19168380011785556118f7565b828001600101855582156118f7579182015b828111156118f65782518255916020019190600101906118db565b5b5090506119049190611c55565b5090565b828054828255906000526020600020908101928215611981579160200282015b828111156119805782518260006101000a81548173ffffffffffffffffffffffffffffffffffffffff021916908373ffffffffffffffffffffffffffffffffffffffff16021790555091602001919060010190611928565b5b50905061198e9190611c7a565b5090565b8280548282559060005260206000209081019282156119ce579160200282015b828111156119cd5782518255916020019190600101906119b2565b5b5090506119db9190611c55565b5090565b815481835581811511611a0657818360005260206000209182019101611a059190611c55565b5b505050565b602060405190810160405280600081525090565b828054600181600116156101000203166002900490600052602060002090601f016020900481019282601f10611a6057805160ff1916838001178555611a8e565b82800160010185558215611a8e579182015b82811115611a8d578251825591602001919060010190611a72565b5b509050611a9b9190611c55565b5090565b828054828255906000526020600020908101928215611b18579160200282015b82811115611b175782518260006101000a81548173ffffffffffffffffffffffffffffffffffffffff021916908373ffffffffffffffffffffffffffffffffffffffff16021790555091602001919060010190611abf565b5b509050611b259190611c7a565b5090565b828054828255906000526020600020908101928215611b65579160200282015b82811115611b64578251825591602001919060010190611b49565b5b509050611b729190611c55565b5090565b602060405190810160405280600081525090565b602060405190810160405280600081525090565b602060405190810160405280600081525090565b602060405190810160405280600081525090565b602060405190810160405280600081525090565b611c5291905b80821115611c4e57600080820160009055600182016000611c019190611cbd565b600282016000611c119190611cbd565b6003820160006101000a81549060ff0219169055600482016000611c359190611d05565b600582016000611c459190611d26565b50600601611be0565b5090565b90565b611c7791905b80821115611c73576000816000905550600101611c5b565b5090565b90565b611cba91905b80821115611cb657600081816101000a81549073ffffffffffffffffffffffffffffffffffffffff021916905550600101611c80565b5090565b90565b50805460018160011615610100020316600290046000825580601f10611ce35750611d02565b601f016020900490600052602060002090810190611d019190611c55565b5b50565b5080546000825590600052602060002090810190611d239190611c55565b50565b5080546000825590600052602060002090810190611d449190611c55565b505600a165627a7a72305820cafda19f91df7eecf10c0f64f32edcce1c92444b57116db8c092b53417b3703c0029",
  "source": "pragma solidity ^0.4.18;\n\nimport \"../libs/Ownable.sol\";\nimport \"../libs/Provider.sol\";\n\n\ncontract StrategyProvider is Provider, Ownable {\n    struct Combo {\n        uint id;\n        string name;\n        string description;\n        bool isPrivate;      // false --> public/ true --> private\n        address[] tokenAddresses;\n        uint[] weights;      //total is 100\n    }\n\n    Combo[] public comboHub;\n\n    mapping(address => uint[]) public comboIndex;\n    mapping(uint => address) public comboOwner;\n\n    event ComboCreated(uint id, string name);\n    event ComboUpdated(uint id, string name);\n\n    modifier _checkIndex(uint _index) {\n        require(_index < comboHub.length);\n        _;\n    }\n\n    function createStrategy(\n        string _name,\n        string _description,\n        address[] _tokenAddresses,\n        uint[] _weights,\n        bool _isPrivate,\n        uint priceInMot\n    ) public returns(uint) \n    {\n\n        address owner = msg.sender;\n        require(_checkCombo(_tokenAddresses, _weights));\n        uint comboId = comboIndex[msg.sender].length;\n        Combo memory myCombo = Combo(comboId, _name, _description, _isPrivate, _tokenAddresses, _weights);\n\n        ComboCreated(myCombo.id, myCombo.name);\n\n        uint index = comboHub.push(myCombo) - 1;\n\n        comboOwner[index] = owner;\n        comboIndex[owner].push(index);\n\n        return index;\n    }\n\n    function updateStrategy(\n        uint _index, \n        string _name, \n        string _description, \n        bool _isPrivate, \n        address[] _tokenAddresses, \n        uint[] _weights, \n        uint _priceInMot) \n        public returns (bool success) \n    {\n\n        // if (!_checkCombo(_tokenAddresses, _weights) || !isOwner(_index)) {\n        require(_checkCombo(_tokenAddresses, _weights));\n        require(isOwner(_index));\n        \n        comboHub[_index].name = _name;\n        comboHub[_index].description = _description;\n        comboHub[_index].isPrivate = _isPrivate;\n        comboHub[_index].tokenAddresses = _tokenAddresses;\n        comboHub[_index].weights = _weights;\n        \n        ComboUpdated(comboHub[_index].id, comboHub[_index].name);\n        return true;\n    }\n\n    function isPrivate(uint _index) public _checkIndex(_index) view returns(bool) {\n        return comboHub[_index].isPrivate;\n    }\n\n    function isOwner(uint _index) public _checkIndex(_index)  view returns(bool) {\n        return comboOwner[_index] == msg.sender;\n    }\n\n    function getAllStrategyIndex() public view returns (uint[]) {\n        return comboIndex[msg.sender];\n    }\n\n    function getStrategy(uint _index) public _checkIndex(_index)  view returns (\n        uint id, \n        string name, \n        string description, \n        address indexOwner, \n        address[] tokenAddresses, \n        uint[] weights, \n        bool isPrivateIndex, \n        uint price) \n    {\n\n        if ((isOwner(_index) || !isPrivate(_index))) {\n            Combo storage combo = comboHub[_index];\n            address owner = comboOwner[_index];\n            return (\n                combo.id, \n                combo.name, \n                combo.description, \n                owner, \n                combo.tokenAddresses, \n                combo.weights, \n                combo.isPrivate, \n                0);\n        } else {\n            //TODO\n            revert();\n            // address[] memory tokenAddresses;\n            // uint[] memory weights;\n            // string memory name;\n            // string memory description;\n            // return (0, name,description, tokenAddresses[0], tokenAddresses, weights, false, 0);\n        }\n    }\n\n    function getStrategies() public {\n        //TODO\n    }\n\n    function _checkCombo(address[] _tokenAddresses, uint[] _weights) internal pure returns(bool) {\n        require(_tokenAddresses.length == _weights.length);\n        uint total = 0;\n        for (uint i = 0; i < _weights.length; ++i) {\n            total += _weights[i];\n        }\n        return total == 100;\n    }\n\n}\n",
  "sourcePath": "/Users/Administrator/Projects/protocol-architecture/contracts/strategy/StategyProvider.sol",
  "compiler": {
    "name": "solc",
    "version": "0.4.19+commit.c4cbbb05.Emscripten.clang"
  },
  "schemaVersion": "2.0.0",
  "updatedAt": "2018-03-21T09:08:39.334Z"
}