{
  "contractName": "StrategyProvider",
  "abi": [
    {
      "constant": true,
      "inputs": [],
      "name": "name",
      "outputs": [
        {
          "name": "",
          "type": "string"
        }
      ],
      "payable": false,
      "stateMutability": "view",
      "type": "function"
    },
    {
      "constant": true,
      "inputs": [],
      "name": "providerType",
      "outputs": [
        {
          "name": "",
          "type": "uint8"
        }
      ],
      "payable": false,
      "stateMutability": "view",
      "type": "function"
    },
    {
      "constant": true,
      "inputs": [],
      "name": "description",
      "outputs": [
        {
          "name": "",
          "type": "string"
        }
      ],
      "payable": false,
      "stateMutability": "view",
      "type": "function"
    },
    {
      "constant": true,
      "inputs": [
        {
          "name": "",
          "type": "address"
        },
        {
          "name": "",
          "type": "uint256"
        }
      ],
      "name": "comboIndex",
      "outputs": [
        {
          "name": "",
          "type": "uint256"
        }
      ],
      "payable": false,
      "stateMutability": "view",
      "type": "function"
    },
    {
      "constant": true,
      "inputs": [
        {
          "name": "",
          "type": "uint256"
        }
      ],
      "name": "comboOwner",
      "outputs": [
        {
          "name": "",
          "type": "address"
        }
      ],
      "payable": false,
      "stateMutability": "view",
      "type": "function"
    },
    {
      "constant": true,
      "inputs": [],
      "name": "owner",
      "outputs": [
        {
          "name": "",
          "type": "address"
        }
      ],
      "payable": false,
      "stateMutability": "view",
      "type": "function"
    },
    {
      "constant": true,
      "inputs": [],
      "name": "statistics",
      "outputs": [
        {
          "name": "counter",
          "type": "uint256"
        },
        {
          "name": "amountInEther",
          "type": "uint256"
        },
        {
          "name": "reputation",
          "type": "uint256"
        }
      ],
      "payable": false,
      "stateMutability": "view",
      "type": "function"
    },
    {
      "constant": true,
      "inputs": [
        {
          "name": "",
          "type": "uint256"
        }
      ],
      "name": "comboHub",
      "outputs": [
        {
          "name": "id",
          "type": "uint256"
        },
        {
          "name": "name",
          "type": "string"
        },
        {
          "name": "description",
          "type": "string"
        },
        {
          "name": "category",
          "type": "string"
        },
        {
          "name": "isPrivate",
          "type": "bool"
        },
        {
          "name": "follower",
          "type": "uint256"
        },
        {
          "name": "amount",
          "type": "uint256"
        }
      ],
      "payable": false,
      "stateMutability": "view",
      "type": "function"
    },
    {
      "constant": false,
      "inputs": [
        {
          "name": "newOwner",
          "type": "address"
        }
      ],
      "name": "transferOwnership",
      "outputs": [],
      "payable": false,
      "stateMutability": "nonpayable",
      "type": "function"
    },
    {
      "anonymous": false,
      "inputs": [
        {
          "indexed": false,
          "name": "id",
          "type": "uint256"
        },
        {
          "indexed": false,
          "name": "name",
          "type": "string"
        }
      ],
      "name": "ComboCreated",
      "type": "event"
    },
    {
      "anonymous": false,
      "inputs": [
        {
          "indexed": false,
          "name": "id",
          "type": "uint256"
        },
        {
          "indexed": false,
          "name": "name",
          "type": "string"
        }
      ],
      "name": "ComboUpdated",
      "type": "event"
    },
    {
      "anonymous": false,
      "inputs": [
        {
          "indexed": false,
          "name": "strategyId",
          "type": "uint256"
        }
      ],
      "name": "StrategyChanged",
      "type": "event"
    },
    {
      "anonymous": false,
      "inputs": [
        {
          "indexed": true,
          "name": "previousOwner",
          "type": "address"
        },
        {
          "indexed": true,
          "name": "newOwner",
          "type": "address"
        }
      ],
      "name": "OwnershipTransferred",
      "type": "event"
    },
    {
      "constant": false,
      "inputs": [
        {
          "name": "_name",
          "type": "string"
        },
        {
          "name": "_description",
          "type": "string"
        },
        {
          "name": "_category",
          "type": "string"
        },
        {
          "name": "_tokenAddresses",
          "type": "address[]"
        },
        {
          "name": "_weights",
          "type": "uint256[]"
        },
        {
          "name": "_isPrivate",
          "type": "bool"
        }
      ],
      "name": "createStrategy",
      "outputs": [
        {
          "name": "",
          "type": "uint256"
        }
      ],
      "payable": false,
      "stateMutability": "nonpayable",
      "type": "function"
    },
    {
      "constant": false,
      "inputs": [
        {
          "name": "_index",
          "type": "uint256"
        },
        {
          "name": "_name",
          "type": "string"
        },
        {
          "name": "_description",
          "type": "string"
        },
        {
          "name": "_category",
          "type": "string"
        },
        {
          "name": "_isPrivate",
          "type": "bool"
        },
        {
          "name": "_tokenAddresses",
          "type": "address[]"
        },
        {
          "name": "_weights",
          "type": "uint256[]"
        }
      ],
      "name": "updateStrategy",
      "outputs": [
        {
          "name": "success",
          "type": "bool"
        }
      ],
      "payable": false,
      "stateMutability": "nonpayable",
      "type": "function"
    },
    {
      "constant": true,
      "inputs": [
        {
          "name": "_index",
          "type": "uint256"
        }
      ],
      "name": "isPrivate",
      "outputs": [
        {
          "name": "",
          "type": "bool"
        }
      ],
      "payable": false,
      "stateMutability": "view",
      "type": "function"
    },
    {
      "constant": true,
      "inputs": [
        {
          "name": "_index",
          "type": "uint256"
        }
      ],
      "name": "isOwner",
      "outputs": [
        {
          "name": "",
          "type": "bool"
        }
      ],
      "payable": false,
      "stateMutability": "view",
      "type": "function"
    },
    {
      "constant": true,
      "inputs": [],
      "name": "getMyStrategies",
      "outputs": [
        {
          "name": "",
          "type": "uint256[]"
        }
      ],
      "payable": false,
      "stateMutability": "view",
      "type": "function"
    },
    {
      "constant": true,
      "inputs": [
        {
          "name": "_owner",
          "type": "address"
        }
      ],
      "name": "getStrategies",
      "outputs": [
        {
          "name": "",
          "type": "uint256[]"
        }
      ],
      "payable": false,
      "stateMutability": "view",
      "type": "function"
    },
    {
      "constant": true,
      "inputs": [
        {
          "name": "_index",
          "type": "uint256"
        }
      ],
      "name": "getStrategy",
      "outputs": [
        {
          "name": "id",
          "type": "uint256"
        },
        {
          "name": "name",
          "type": "string"
        },
        {
          "name": "description",
          "type": "string"
        },
        {
          "name": "category",
          "type": "string"
        },
        {
          "name": "indexOwner",
          "type": "address"
        },
        {
          "name": "tokenAddresses",
          "type": "address[]"
        },
        {
          "name": "weights",
          "type": "uint256[]"
        },
        {
          "name": "isPrivateIndex",
          "type": "bool"
        },
        {
          "name": "follower",
          "type": "uint256"
        },
        {
          "name": "amount",
          "type": "uint256"
        }
      ],
      "payable": false,
      "stateMutability": "view",
      "type": "function"
    },
    {
      "constant": false,
      "inputs": [
        {
          "name": "_index",
          "type": "uint256"
        },
        {
          "name": "_amountInEther",
          "type": "uint256"
        }
      ],
      "name": "incrementStatistics",
      "outputs": [
        {
          "name": "",
          "type": "bool"
        }
      ],
      "payable": false,
      "stateMutability": "nonpayable",
      "type": "function"
    }
  ],
  "bytecode": "0x606060405233600760006101000a81548173ffffffffffffffffffffffffffffffffffffffff021916908373ffffffffffffffffffffffffffffffffffffffff160217905550612222806100546000396000f3006060604052600436106100f1576000357c0100000000000000000000000000000000000000000000000000000000900463ffffffff16806306e840ea146100f657806306fdde031461013a57806324d45d9e146101c857806339c7639c146102035780635552ea401461023e5780635ddff1ad1461027557806361819d52146104045780637284e41614610492578063821628b814610520578063834c4c38146105765780638534e787146105d95780638da5cb5b1461064357806395e272bd14610698578063a376dc53146106cf578063cfc0cc3414610851578063efaa044e14610aa8578063f2fde38b14610c93575b600080fd5b341561010157600080fd5b6101206004808035906020019091908035906020019091905050610ccc565b604051808215151515815260200191505060405180910390f35b341561014557600080fd5b61014d610d02565b6040518080602001828103825283818151815260200191508051906020019080838360005b8381101561018d578082015181840152602081019050610172565b50505050905090810190601f1680156101ba5780820380516001836020036101000a031916815260200191505b509250505060405180910390f35b34156101d357600080fd5b6101e96004808035906020019091905050610da0565b604051808215151515815260200191505060405180910390f35b341561020e57600080fd5b6102246004808035906020019091905050610dec565b604051808215151515815260200191505060405180910390f35b341561024957600080fd5b610251610e6c565b6040518082600281111561026157fe5b60ff16815260200191505060405180910390f35b341561028057600080fd5b6103ea600480803590602001909190803590602001908201803590602001908080601f0160208091040260200160405190810160405280939291908181526020018383808284378201915050505050509190803590602001908201803590602001908080601f0160208091040260200160405190810160405280939291908181526020018383808284378201915050505050509190803590602001908201803590602001908080601f0160208091040260200160405190810160405280939291908181526020018383808284378201915050505050509190803515159060200190919080359060200190820180359060200190808060200260200160405190810160405280939291908181526020018383602002808284378201915050505050509190803590602001908201803590602001908080602002602001604051908101604052809392919081815260200183836020028082843782019150505050505091905050610e7f565b604051808215151515815260200191505060405180910390f35b341561040f57600080fd5b61043b600480803573ffffffffffffffffffffffffffffffffffffffff169060200190919050506110fa565b6040518080602001828103825283818151815260200191508051906020019060200280838360005b8381101561047e578082015181840152602081019050610463565b505050509050019250505060405180910390f35b341561049d57600080fd5b6104a5611197565b6040518080602001828103825283818151815260200191508051906020019080838360005b838110156104e55780820151818401526020810190506104ca565b50505050905090810190601f1680156105125780820380516001836020036101000a031916815260200191505b509250505060405180910390f35b341561052b57600080fd5b610560600480803573ffffffffffffffffffffffffffffffffffffffff16906020019091908035906020019091905050611235565b6040518082815260200191505060405180910390f35b341561058157600080fd5b6105976004808035906020019091905050611266565b604051808273ffffffffffffffffffffffffffffffffffffffff1673ffffffffffffffffffffffffffffffffffffffff16815260200191505060405180910390f35b34156105e457600080fd5b6105ec611299565b6040518080602001828103825283818151815260200191508051906020019060200280838360005b8381101561062f578082015181840152602081019050610614565b505050509050019250505060405180910390f35b341561064e57600080fd5b610656611334565b604051808273ffffffffffffffffffffffffffffffffffffffff1673ffffffffffffffffffffffffffffffffffffffff16815260200191505060405180910390f35b34156106a357600080fd5b6106ab61135a565b60405180848152602001838152602001828152602001935050505060405180910390f35b34156106da57600080fd5b61083b600480803590602001908201803590602001908080601f0160208091040260200160405190810160405280939291908181526020018383808284378201915050505050509190803590602001908201803590602001908080601f0160208091040260200160405190810160405280939291908181526020018383808284378201915050505050509190803590602001908201803590602001908080601f0160208091040260200160405190810160405280939291908181526020018383808284378201915050505050509190803590602001908201803590602001908080602002602001604051908101604052809392919081815260200183836020028082843782019150505050505091908035906020019082018035906020019080806020026020016040519081016040528093929190818152602001838360200280828437820191505050505050919080351515906020019091905050611372565b6040518082815260200191505060405180910390f35b341561085c57600080fd5b610872600480803590602001909190505061169b565b604051808b81526020018060200180602001806020018a73ffffffffffffffffffffffffffffffffffffffff1673ffffffffffffffffffffffffffffffffffffffff16815260200180602001806020018915151515815260200188815260200187815260200186810386528f818151815260200191508051906020019080838360005b838110156109105780820151818401526020810190506108f5565b50505050905090810190601f16801561093d5780820380516001836020036101000a031916815260200191505b5086810385528e818151815260200191508051906020019080838360005b8381101561097657808201518184015260208101905061095b565b50505050905090810190601f1680156109a35780820380516001836020036101000a031916815260200191505b5086810384528d818151815260200191508051906020019080838360005b838110156109dc5780820151818401526020810190506109c1565b50505050905090810190601f168015610a095780820380516001836020036101000a031916815260200191505b5086810383528b818151815260200191508051906020019060200280838360005b83811015610a45578082015181840152602081019050610a2a565b5050505090500186810382528a818151815260200191508051906020019060200280838360005b83811015610a87578082015181840152602081019050610a6c565b505050509050019f5050505050505050505050505050505060405180910390f35b3415610ab357600080fd5b610ac96004808035906020019091905050611a69565b604051808881526020018060200180602001806020018715151515815260200186815260200185815260200184810384528a818154600181600116156101000203166002900481526020019150805460018160011615610100020316600290048015610b765780601f10610b4b57610100808354040283529160200191610b76565b820191906000526020600020905b815481529060010190602001808311610b5957829003601f168201915b5050848103835289818154600181600116156101000203166002900481526020019150805460018160011615610100020316600290048015610bf95780601f10610bce57610100808354040283529160200191610bf9565b820191906000526020600020905b815481529060010190602001808311610bdc57829003601f168201915b5050848103825288818154600181600116156101000203166002900481526020019150805460018160011615610100020316600290048015610c7c5780601f10610c5157610100808354040283529160200191610c7c565b820191906000526020600020905b815481529060010190602001808311610c5f57829003601f168201915b50509a505050505050505050505060405180910390f35b3415610c9e57600080fd5b610cca600480803573ffffffffffffffffffffffffffffffffffffffff16906020019091905050611ac4565b005b600081600884815481101515610cde57fe5b90600052602060002090600902016008016000828254019250508190555092915050565b60008054600181600116156101000203166002900480601f016020809104026020016040519081016040528092919081815260200182805460018160011615610100020316600290048015610d985780601f10610d6d57610100808354040283529160200191610d98565b820191906000526020600020905b815481529060010190602001808311610d7b57829003601f168201915b505050505081565b60008160088054905081101515610db657600080fd5b600883815481101515610dc557fe5b906000526020600020906009020160040160009054906101000a900460ff16915050919050565b60008160088054905081101515610e0257600080fd5b3373ffffffffffffffffffffffffffffffffffffffff16600a600085815260200190815260200160002060009054906101000a900473ffffffffffffffffffffffffffffffffffffffff1673ffffffffffffffffffffffffffffffffffffffff1614915050919050565b600160009054906101000a900460ff1681565b6000610e8b8383611c1c565b1515610e9657600080fd5b610e9f88610dec565b1515610eaa57600080fd5b86600889815481101515610eba57fe5b90600052602060002090600902016001019080519060200190610ede929190611c78565b5085600889815481101515610eef57fe5b90600052602060002090600902016002019080519060200190610f13929190611c78565b5084600889815481101515610f2457fe5b90600052602060002090600902016003019080519060200190610f48929190611c78565b5083600889815481101515610f5957fe5b906000526020600020906009020160040160006101000a81548160ff02191690831515021790555082600889815481101515610f9157fe5b90600052602060002090600902016005019080519060200190610fb5929190611cf8565b5081600889815481101515610fc657fe5b90600052602060002090600902016006019080519060200190610fea929190611d82565b507f9db0558ef51437816cca15f0062dafeea49b4cee9521c00938eb9c2a786167ce60088981548110151561101b57fe5b90600052602060002090600902016000015460088a81548110151561103c57fe5b906000526020600020906009020160010160405180838152602001806020018281038252838181546001816001161561010002031660029004815260200191508054600181600116156101000203166002900480156110dc5780601f106110b1576101008083540402835291602001916110dc565b820191906000526020600020905b8154815290600101906020018083116110bf57829003601f168201915b5050935050505060405180910390a160019050979650505050505050565b611102611dcf565b600960008373ffffffffffffffffffffffffffffffffffffffff1673ffffffffffffffffffffffffffffffffffffffff16815260200190815260200160002080548060200260200160405190810160405280929190818152602001828054801561118b57602002820191906000526020600020905b815481526020019060010190808311611177575b50505050509050919050565b60028054600181600116156101000203166002900480601f01602080910402602001604051908101604052809291908181526020018280546001816001161561010002031660029004801561122d5780601f106112025761010080835404028352916020019161122d565b820191906000526020600020905b81548152906001019060200180831161121057829003601f168201915b505050505081565b60096020528160005260406000208181548110151561125057fe5b9060005260206000209001600091509150505481565b600a6020528060005260406000206000915054906101000a900473ffffffffffffffffffffffffffffffffffffffff1681565b6112a1611dcf565b600960003373ffffffffffffffffffffffffffffffffffffffff1673ffffffffffffffffffffffffffffffffffffffff16815260200190815260200160002080548060200260200160405190810160405280929190818152602001828054801561132a57602002820191906000526020600020905b815481526020019060010190808311611316575b5050505050905090565b600760009054906101000a900473ffffffffffffffffffffffffffffffffffffffff1681565b60048060000154908060010154908060020154905083565b600080600061137f611de3565b600033935061138e8888611c1c565b151561139957600080fd5b600960003373ffffffffffffffffffffffffffffffffffffffff1673ffffffffffffffffffffffffffffffffffffffff168152602001908152602001600020805490509250610120604051908101604052808481526020018c81526020018b81526020018a8152602001871515815260200189815260200188815260200160008152602001600081525091507f5710610526b7d140cee4734d90a7d025d8726a965276c447cbe4f5ee53a5e577826000015183602001516040518083815260200180602001828103825283818151815260200191508051906020019080838360005b8381101561149657808201518184015260208101905061147b565b50505050905090810190601f1680156114c35780820380516001836020036101000a031916815260200191505b50935050505060405180910390a16001600880548060010182816114e79190611e50565b91600052602060002090600902016000859091909150600082015181600001556020820151816001019080519060200190611523929190611e82565b506040820151816002019080519060200190611540929190611e82565b50606082015181600301908051906020019061155d929190611e82565b5060808201518160040160006101000a81548160ff02191690831515021790555060a082015181600501908051906020019061159a929190611f02565b5060c08201518160060190805190602001906115b7929190611f8c565b5060e082015181600701556101008201518160080155505003905083600a600083815260200190815260200160002060006101000a81548173ffffffffffffffffffffffffffffffffffffffff021916908373ffffffffffffffffffffffffffffffffffffffff160217905550600960008573ffffffffffffffffffffffffffffffffffffffff1673ffffffffffffffffffffffffffffffffffffffff16815260200190815260200160002080548060010182816116759190611fd9565b916000526020600020900160008390919091505550809450505050509695505050505050565b60006116a5612005565b6116ad612005565b6116b5612005565b60006116bf612019565b6116c7611dcf565b60008060008060008c600880549050811015156116e357600080fd5b6116ec8e610dec565b806116fd57506116fb8e610da0565b155b15611a545760088e81548110151561171157fe5b90600052602060002090600902019250600a60008f815260200190815260200160002060009054906101000a900473ffffffffffffffffffffffffffffffffffffffff16915082600001548360010184600201856003018587600501886006018960040160009054906101000a900460ff168a600701548b60080154888054600181600116156101000203166002900480601f0160208091040260200160405190810160405280929190818152602001828054600181600116156101000203166002900480156118225780601f106117f757610100808354040283529160200191611822565b820191906000526020600020905b81548152906001019060200180831161180557829003601f168201915b50505050509850878054600181600116156101000203166002900480601f0160208091040260200160405190810160405280929190818152602001828054600181600116156101000203166002900480156118be5780601f10611893576101008083540402835291602001916118be565b820191906000526020600020905b8154815290600101906020018083116118a157829003601f168201915b50505050509750868054600181600116156101000203166002900480601f01602080910402602001604051908101604052809291908181526020018280546001816001161561010002031660029004801561195a5780601f1061192f5761010080835404028352916020019161195a565b820191906000526020600020905b81548152906001019060200180831161193d57829003601f168201915b50505050509650848054806020026020016040519081016040528092919081815260200182805480156119e257602002820191906000526020600020905b8160009054906101000a900473ffffffffffffffffffffffffffffffffffffffff1673ffffffffffffffffffffffffffffffffffffffff1681526020019060010190808311611998575b5050505050945083805480602002602001604051908101604052809291908181526020018280548015611a3457602002820191906000526020600020905b815481526020019060010190808311611a20575b505050505093509c509c509c509c509c509c509c509c509c509c50611a59565b600080fd5b5050509193959799509193959799565b600881815481101515611a7857fe5b90600052602060002090600902016000915090508060000154908060010190806002019080600301908060040160009054906101000a900460ff16908060070154908060080154905087565b600760009054906101000a900473ffffffffffffffffffffffffffffffffffffffff1673ffffffffffffffffffffffffffffffffffffffff163373ffffffffffffffffffffffffffffffffffffffff16141515611b2057600080fd5b600073ffffffffffffffffffffffffffffffffffffffff168173ffffffffffffffffffffffffffffffffffffffff1614151515611b5c57600080fd5b8073ffffffffffffffffffffffffffffffffffffffff16600760009054906101000a900473ffffffffffffffffffffffffffffffffffffffff1673ffffffffffffffffffffffffffffffffffffffff167f8be0079c531659141344cd1fd0a4f28419497f9722a3daafe3b4186f6b6457e060405160405180910390a380600760006101000a81548173ffffffffffffffffffffffffffffffffffffffff021916908373ffffffffffffffffffffffffffffffffffffffff16021790555050565b600080600083518551141515611c3157600080fd5b60009150600090505b8351811015611c6a578381815181101515611c5157fe5b9060200190602002015182019150806001019050611c3a565b606482149250505092915050565b828054600181600116156101000203166002900490600052602060002090601f016020900481019282601f10611cb957805160ff1916838001178555611ce7565b82800160010185558215611ce7579182015b82811115611ce6578251825591602001919060010190611ccb565b5b509050611cf4919061202d565b5090565b828054828255906000526020600020908101928215611d71579160200282015b82811115611d705782518260006101000a81548173ffffffffffffffffffffffffffffffffffffffff021916908373ffffffffffffffffffffffffffffffffffffffff16021790555091602001919060010190611d18565b5b509050611d7e9190612052565b5090565b828054828255906000526020600020908101928215611dbe579160200282015b82811115611dbd578251825591602001919060010190611da2565b5b509050611dcb919061202d565b5090565b602060405190810160405280600081525090565b6101206040519081016040528060008152602001611dff612095565b8152602001611e0c612095565b8152602001611e19612095565b8152602001600015158152602001611e2f6120a9565b8152602001611e3c6120bd565b815260200160008152602001600081525090565b815481835581811511611e7d57600902816009028360005260206000209182019101611e7c91906120d1565b5b505050565b828054600181600116156101000203166002900490600052602060002090601f016020900481019282601f10611ec357805160ff1916838001178555611ef1565b82800160010185558215611ef1579182015b82811115611ef0578251825591602001919060010190611ed5565b5b509050611efe919061202d565b5090565b828054828255906000526020600020908101928215611f7b579160200282015b82811115611f7a5782518260006101000a81548173ffffffffffffffffffffffffffffffffffffffff021916908373ffffffffffffffffffffffffffffffffffffffff16021790555091602001919060010190611f22565b5b509050611f889190612052565b5090565b828054828255906000526020600020908101928215611fc8579160200282015b82811115611fc7578251825591602001919060010190611fac565b5b509050611fd5919061202d565b5090565b81548183558181151161200057818360005260206000209182019101611fff919061202d565b5b505050565b602060405190810160405280600081525090565b602060405190810160405280600081525090565b61204f91905b8082111561204b576000816000905550600101612033565b5090565b90565b61209291905b8082111561208e57600081816101000a81549073ffffffffffffffffffffffffffffffffffffffff021916905550600101612058565b5090565b90565b602060405190810160405280600081525090565b602060405190810160405280600081525090565b602060405190810160405280600081525090565b61216991905b80821115612165576000808201600090556001820160006120f8919061216c565b600282016000612108919061216c565b600382016000612118919061216c565b6004820160006101000a81549060ff021916905560058201600061213c91906121b4565b60068201600061214c91906121d5565b60078201600090556008820160009055506009016120d7565b5090565b90565b50805460018160011615610100020316600290046000825580601f1061219257506121b1565b601f0160209004906000526020600020908101906121b0919061202d565b5b50565b50805460008255906000526020600020908101906121d2919061202d565b50565b50805460008255906000526020600020908101906121f3919061202d565b505600a165627a7a72305820f977ed2d50061b7531675653f67d5924bbf929a7fd1960520f9c02792000029e0029",
  "source": "pragma solidity ^0.4.18;\n\nimport \"./StrategyProviderInterface.sol\";\n\n\ncontract StrategyProvider is StrategyProviderInterface {\n\n    function createStrategy(\n        string _name,\n        string _description,\n        string _category,\n        address[] _tokenAddresses,\n        uint[] _weights,\n        bool _isPrivate) \n        public returns(uint) \n    {\n\n        address owner = msg.sender;\n        require(_checkCombo(_tokenAddresses, _weights));\n        uint comboId = comboIndex[msg.sender].length;\n        Combo memory myCombo = Combo(comboId, _name, _description, _category, _isPrivate, _tokenAddresses, _weights, 0, 0);\n\n        ComboCreated(myCombo.id, myCombo.name);\n\n        uint index = comboHub.push(myCombo) - 1;\n\n        comboOwner[index] = owner;\n        comboIndex[owner].push(index);\n\n        return index;\n    }\n\n    function updateStrategy(\n        uint _index, \n        string _name, \n        string _description, \n        string _category,\n        bool _isPrivate, \n        address[] _tokenAddresses, \n        uint[] _weights) \n        public returns (bool success) \n    {\n\n        require(_checkCombo(_tokenAddresses, _weights));\n        require(isOwner(_index));\n        \n        comboHub[_index].name = _name;\n        comboHub[_index].description = _description;\n        comboHub[_index].category = _category;\n        comboHub[_index].isPrivate = _isPrivate;\n        comboHub[_index].tokenAddresses = _tokenAddresses;\n        comboHub[_index].weights = _weights;\n        \n        ComboUpdated(comboHub[_index].id, comboHub[_index].name);\n        return true;\n    }\n\n    function isPrivate(uint _index) public _checkIndex(_index) view returns(bool) {\n        return comboHub[_index].isPrivate;\n    }\n\n    function isOwner(uint _index) public _checkIndex(_index)  view returns(bool) {\n        return comboOwner[_index] == msg.sender;\n    }\n\n    function getMyStrategies() public view returns (uint[]) {\n        return comboIndex[msg.sender];\n    }\n\n    function getStrategies(address _owner) public view returns (uint[]) {\n        return comboIndex[_owner];\n    }\n\n    function getStrategy(uint _index) public _checkIndex(_index) view returns (\n        uint id, \n        string name, \n        string description, \n        string category,\n        address indexOwner, \n        address[] tokenAddresses, \n        uint[] weights, \n        bool isPrivateIndex, \n        uint follower,\n        uint amount) \n    {\n\n        if ((isOwner(_index) || !isPrivate(_index))) {\n            Combo storage combo = comboHub[_index];\n            address owner = comboOwner[_index];\n            return (\n                combo.id, \n                combo.name, \n                combo.description, \n                combo.category,\n                owner, \n                combo.tokenAddresses, \n                combo.weights, \n                combo.isPrivate, \n                combo.follower,\n                combo.amount);\n        } else {\n            //TODO\n            revert();\n            // address[] memory tokenAddresses;\n            // uint[] memory weights;\n            // string memory name;\n            // string memory description;\n            // return (0, name,description, tokenAddresses[0], tokenAddresses, weights, false, 0);\n        }\n    }\n    //TODO require core contract address\n    function incrementStatistics(uint _index, uint _amountInEther) external returns (bool){\n        comboHub[_index].amount += _amountInEther;\n    }  \n\n    function _checkCombo(address[] _tokenAddresses, uint[] _weights) internal pure returns(bool) {\n        require(_tokenAddresses.length == _weights.length);\n        uint total = 0;\n        for (uint i = 0; i < _weights.length; ++i) {\n            total += _weights[i];\n        }\n        return total == 100;\n    }\n\n      \n}\n",
  "sourcePath": "/Users/snow/olympus/code/protocol-architecture/contracts/strategy/StrategyProvider.sol",
  "compiler": {
    "name": "solc",
    "version": "0.4.19+commit.c4cbbb05.Emscripten.clang"
  },
  "schemaVersion": "2.0.0",
  "updatedAt": "2018-03-22T08:03:40.598Z"
}